{
  "_format": "hh-sol-artifact-1",
  "contractName": "Storage",
  "sourceName": "contracts/Storage.sol",
  "abi": [
    {
      "inputs": [
        {
          "internalType": "string",
          "name": "_fileName",
          "type": "string"
        },
        {
          "internalType": "uint256",
          "name": "_fileSize",
          "type": "uint256"
        },
        {
          "internalType": "string",
          "name": "_uploadDate",
          "type": "string"
        },
        {
          "internalType": "string",
          "name": "_fragmentHashes",
          "type": "string"
        }
      ],
      "name": "addFile",
      "outputs": [],
      "stateMutability": "nonpayable",
      "type": "function"
    },
    {
      "inputs": [],
      "name": "fileCount",
      "outputs": [
        {
          "internalType": "uint256",
          "name": "",
          "type": "uint256"
        }
      ],
      "stateMutability": "view",
      "type": "function"
    },
    {
      "inputs": [
        {
          "internalType": "uint256",
          "name": "",
          "type": "uint256"
        }
      ],
      "name": "files",
      "outputs": [
        {
          "internalType": "string",
          "name": "fileName",
          "type": "string"
        },
        {
          "internalType": "uint256",
          "name": "fileSize",
          "type": "uint256"
        },
        {
          "internalType": "string",
          "name": "uploadDate",
          "type": "string"
        },
        {
          "internalType": "string",
          "name": "fragmentHashes",
          "type": "string"
        }
      ],
      "stateMutability": "view",
      "type": "function"
    },
    {
      "inputs": [],
      "name": "getAllFiles",
      "outputs": [
        {
          "internalType": "string[]",
          "name": "",
          "type": "string[]"
        },
        {
          "internalType": "uint256[]",
          "name": "",
          "type": "uint256[]"
        },
        {
          "internalType": "string[]",
          "name": "",
          "type": "string[]"
        },
        {
          "internalType": "string[]",
          "name": "",
          "type": "string[]"
        }
      ],
      "stateMutability": "view",
      "type": "function"
    },
    {
      "inputs": [
        {
          "internalType": "uint256",
          "name": "_index",
          "type": "uint256"
        }
      ],
      "name": "getFile",
      "outputs": [
        {
          "internalType": "string",
          "name": "",
          "type": "string"
        },
        {
          "internalType": "uint256",
          "name": "",
          "type": "uint256"
        },
        {
          "internalType": "string",
          "name": "",
          "type": "string"
        },
        {
          "internalType": "string",
          "name": "",
          "type": "string"
        }
      ],
      "stateMutability": "view",
      "type": "function"
    }
  ],
  "bytecode": "0x608060405234801561001057600080fd5b506112fa806100206000396000f3fe608060405234801561001057600080fd5b50600436106100575760003560e01c80632bfda3131461005c578063439535191461008f5780634626589a146100ad578063f4c714b4146100c9578063ff24b5d5146100fc575b600080fd5b610076600480360381019061007191906109b0565b61011d565b6040516100869493929190610a7c565b60405180910390f35b6100976102ff565b6040516100a49190610ad6565b60405180910390f35b6100c760048036038101906100c29190610c26565b610305565b005b6100e360048036038101906100de91906109b0565b6103a7565b6040516100f39493929190610a7c565b60405180910390f35b61010461056f565b6040516101149493929190610eab565b60405180910390f35b6060600060608060008060008781526020019081526020016000209050806000018160010154826002018360030183805461015790610f3b565b80601f016020809104026020016040519081016040528092919081815260200182805461018390610f3b565b80156101d05780601f106101a5576101008083540402835291602001916101d0565b820191906000526020600020905b8154815290600101906020018083116101b357829003601f168201915b505050505093508180546101e390610f3b565b80601f016020809104026020016040519081016040528092919081815260200182805461020f90610f3b565b801561025c5780601f106102315761010080835404028352916020019161025c565b820191906000526020600020905b81548152906001019060200180831161023f57829003601f168201915b5050505050915080805461026f90610f3b565b80601f016020809104026020016040519081016040528092919081815260200182805461029b90610f3b565b80156102e85780601f106102bd576101008083540402835291602001916102e8565b820191906000526020600020905b8154815290600101906020018083116102cb57829003601f168201915b505050505090509450945094509450509193509193565b60015481565b6001600081548092919061031890610f9b565b919050555060405180608001604052808581526020018481526020018381526020018281525060008060015481526020019081526020016000206000820151816000019081610367919061118f565b50602082015181600101556040820151816002019081610387919061118f565b50606082015181600301908161039d919061118f565b5090505050505050565b60006020528060005260406000206000915090508060000180546103ca90610f3b565b80601f01602080910402602001604051908101604052809291908181526020018280546103f690610f3b565b80156104435780601f1061041857610100808354040283529160200191610443565b820191906000526020600020905b81548152906001019060200180831161042657829003601f168201915b50505050509080600101549080600201805461045e90610f3b565b80601f016020809104026020016040519081016040528092919081815260200182805461048a90610f3b565b80156104d75780601f106104ac576101008083540402835291602001916104d7565b820191906000526020600020905b8154815290600101906020018083116104ba57829003601f168201915b5050505050908060030180546104ec90610f3b565b80601f016020809104026020016040519081016040528092919081815260200182805461051890610f3b565b80156105655780601f1061053a57610100808354040283529160200191610565565b820191906000526020600020905b81548152906001019060200180831161054857829003601f168201915b5050505050905084565b606080606080600060015467ffffffffffffffff81111561059357610592610afb565b5b6040519080825280602002602001820160405280156105c657816020015b60608152602001906001900390816105b15790505b509050600060015467ffffffffffffffff8111156105e7576105e6610afb565b5b6040519080825280602002602001820160405280156106155781602001602082028036833780820191505090505b509050600060015467ffffffffffffffff81111561063657610635610afb565b5b60405190808252806020026020018201604052801561066957816020015b60608152602001906001900390816106545790505b509050600060015467ffffffffffffffff81111561068a57610689610afb565b5b6040519080825280602002602001820160405280156106bd57816020015b60608152602001906001900390816106a85790505b5090506000600190505b600154811161094f57600080600083815260200190815260200160002090508060000180546106f590610f3b565b80601f016020809104026020016040519081016040528092919081815260200182805461072190610f3b565b801561076e5780601f106107435761010080835404028352916020019161076e565b820191906000526020600020905b81548152906001019060200180831161075157829003601f168201915b5050505050866001846107819190611261565b8151811061079257610791611295565b5b60200260200101819052508060010154856001846107b09190611261565b815181106107c1576107c0611295565b5b6020026020010181815250508060020180546107dc90610f3b565b80601f016020809104026020016040519081016040528092919081815260200182805461080890610f3b565b80156108555780601f1061082a57610100808354040283529160200191610855565b820191906000526020600020905b81548152906001019060200180831161083857829003601f168201915b5050505050846001846108689190611261565b8151811061087957610878611295565b5b602002602001018190525080600301805461089390610f3b565b80601f01602080910402602001604051908101604052809291908181526020018280546108bf90610f3b565b801561090c5780601f106108e15761010080835404028352916020019161090c565b820191906000526020600020905b8154815290600101906020018083116108ef57829003601f168201915b50505050508360018461091f9190611261565b815181106109305761092f611295565b5b602002602001018190525050808061094790610f9b565b9150506106c7565b508383838397509750975097505050505090919293565b6000604051905090565b600080fd5b600080fd5b6000819050919050565b61098d8161097a565b811461099857600080fd5b50565b6000813590506109aa81610984565b92915050565b6000602082840312156109c6576109c5610970565b5b60006109d48482850161099b565b91505092915050565b600081519050919050565b600082825260208201905092915050565b60005b83811015610a175780820151818401526020810190506109fc565b60008484015250505050565b6000601f19601f8301169050919050565b6000610a3f826109dd565b610a4981856109e8565b9350610a598185602086016109f9565b610a6281610a23565b840191505092915050565b610a768161097a565b82525050565b60006080820190508181036000830152610a968187610a34565b9050610aa56020830186610a6d565b8181036040830152610ab78185610a34565b90508181036060830152610acb8184610a34565b905095945050505050565b6000602082019050610aeb6000830184610a6d565b92915050565b600080fd5b600080fd5b7f4e487b7100000000000000000000000000000000000000000000000000000000600052604160045260246000fd5b610b3382610a23565b810181811067ffffffffffffffff82111715610b5257610b51610afb565b5b80604052505050565b6000610b65610966565b9050610b718282610b2a565b919050565b600067ffffffffffffffff821115610b9157610b90610afb565b5b610b9a82610a23565b9050602081019050919050565b82818337600083830152505050565b6000610bc9610bc484610b76565b610b5b565b905082815260208101848484011115610be557610be4610af6565b5b610bf0848285610ba7565b509392505050565b600082601f830112610c0d57610c0c610af1565b5b8135610c1d848260208601610bb6565b91505092915050565b60008060008060808587031215610c4057610c3f610970565b5b600085013567ffffffffffffffff811115610c5e57610c5d610975565b5b610c6a87828801610bf8565b9450506020610c7b8782880161099b565b935050604085013567ffffffffffffffff811115610c9c57610c9b610975565b5b610ca887828801610bf8565b925050606085013567ffffffffffffffff811115610cc957610cc8610975565b5b610cd587828801610bf8565b91505092959194509250565b600081519050919050565b600082825260208201905092915050565b6000819050602082019050919050565b600082825260208201905092915050565b6000610d29826109dd565b610d338185610d0d565b9350610d438185602086016109f9565b610d4c81610a23565b840191505092915050565b6000610d638383610d1e565b905092915050565b6000602082019050919050565b6000610d8382610ce1565b610d8d8185610cec565b935083602082028501610d9f85610cfd565b8060005b85811015610ddb5784840389528151610dbc8582610d57565b9450610dc783610d6b565b925060208a01995050600181019050610da3565b50829750879550505050505092915050565b600081519050919050565b600082825260208201905092915050565b6000819050602082019050919050565b610e228161097a565b82525050565b6000610e348383610e19565b60208301905092915050565b6000602082019050919050565b6000610e5882610ded565b610e628185610df8565b9350610e6d83610e09565b8060005b83811015610e9e578151610e858882610e28565b9750610e9083610e40565b925050600181019050610e71565b5085935050505092915050565b60006080820190508181036000830152610ec58187610d78565b90508181036020830152610ed98186610e4d565b90508181036040830152610eed8185610d78565b90508181036060830152610f018184610d78565b905095945050505050565b7f4e487b7100000000000000000000000000000000000000000000000000000000600052602260045260246000fd5b60006002820490506001821680610f5357607f821691505b602082108103610f6657610f65610f0c565b5b50919050565b7f4e487b7100000000000000000000000000000000000000000000000000000000600052601160045260246000fd5b6000610fa68261097a565b91507fffffffffffffffffffffffffffffffffffffffffffffffffffffffffffffffff8203610fd857610fd7610f6c565b5b600182019050919050565b60008190508160005260206000209050919050565b60006020601f8301049050919050565b600082821b905092915050565b6000600883026110457fffffffffffffffffffffffffffffffffffffffffffffffffffffffffffffffff82611008565b61104f8683611008565b95508019841693508086168417925050509392505050565b6000819050919050565b600061108c6110876110828461097a565b611067565b61097a565b9050919050565b6000819050919050565b6110a683611071565b6110ba6110b282611093565b848454611015565b825550505050565b600090565b6110cf6110c2565b6110da81848461109d565b505050565b5b818110156110fe576110f36000826110c7565b6001810190506110e0565b5050565b601f8211156111435761111481610fe3565b61111d84610ff8565b8101602085101561112c578190505b61114061113885610ff8565b8301826110df565b50505b505050565b600082821c905092915050565b600061116660001984600802611148565b1980831691505092915050565b600061117f8383611155565b9150826002028217905092915050565b611198826109dd565b67ffffffffffffffff8111156111b1576111b0610afb565b5b6111bb8254610f3b565b6111c6828285611102565b600060209050601f8311600181146111f957600084156111e7578287015190505b6111f18582611173565b865550611259565b601f19841661120786610fe3565b60005b8281101561122f5784890151825560018201915060208501945060208101905061120a565b8683101561124c5784890151611248601f891682611155565b8355505b6001600288020188555050505b505050505050565b600061126c8261097a565b91506112778361097a565b925082820390508181111561128f5761128e610f6c565b5b92915050565b7f4e487b7100000000000000000000000000000000000000000000000000000000600052603260045260246000fdfea26469706673582212205e7c5000331a1e01116918e1c1ecbc4b6fc79bd34776a0b7ba8c99e8d3e5c2b064736f6c63430008130033",
  "linkReferences": {},
  "deployedLinkReferences": {}
}